// ETP transfer
// 0.00001 ETP
const src = {"version":4,"inputs":[{"address":"MT7By3irp1nzTvha3zGe7t8h61HtUSzTAn","previous_output":{"address":"MT7By3irp1nzTvha3zGe7t8h61HtUSzTAn","hash":"b111cf17bbf82edcaf2e62fa363822c2e8620357413184cc96916004f9b9d8ea","script":"dup hash160 [ d2b0d45dfdba50fbd227f968c79a29ece05144fb ] equalverify checksig","index":2},"script":"","sequence":4294967295}],"outputs":[{"address":"MNWVbJuNxq9FQNL1bWXx5sXiFRKjcFuuj9","attachment":{"version":1,"type":0},"value":100,"script_type":"pubkeyhash"},{"address":"MT7By3irp1nzTvha3zGe7t8h61HtUSzTAn","attachment":{"version":1,"type":0},"value":40209900,"script_type":"pubkeyhash"}],"lock_time":0}
const des = {"ledger_inputs":[[{"version":{"type":"Buffer","data":[4,0,0,0]},"inputs":[{"prevout":{"type":"Buffer","data":[234,216,185,249,4,96,145,150,204,132,49,65,87,3,98,232,194,34,56,54,250,98,46,175,220,46,248,187,23,207,17,177,2,0,0,0]},"vout":2,"script":{"type":"Buffer","data":[118,169,20,210,176,212,93,253,186,80,251,210,39,249,104,199,154,41,236,224,81,68,251,136,172]},"sequence":{"type":"Buffer","data":[255,255,255,255]}}],"outputs":[{"amount":{"type":"Buffer","data":[100,0,0,0,0,0,0,0]},"script":{"type":"Buffer","data":[118,169,20,160,64,123,4,164,230,92,38,158,114,84,186,26,184,74,255,189,173,110,236,136,172]},"postfix":"0100000000000000"},{"amount":{"type":"Buffer","data":[236,141,101,2,0,0,0,0]},"script":{"type":"Buffer","data":[118,169,20,210,176,212,93,253,186,80,251,210,39,249,104,199,154,41,236,224,81,68,251,136,172]},"postfix":"0100000000000000"}],"locktime":{"type":"Buffer","data":[0,0,0,0]},"timestamp":{"type":"Buffer","data":[]},"nVersionGroupId":{"type":"Buffer","data":[]},"nExpiryHeight":{"type":"Buffer","data":[]},"extraData":{"type":"Buffer","data":[]}},0,null,4294967295]],"associatedKeysets":["44'/2302'/1'/0/0","44'/2302'/1'/0/0"],"changePath":"44'/2302'/1'/0/0","outputsScript":"0164000000000000001976a914a0407b04a4e65c269e7254ba1ab84affbdad6eec88ac0100000000000000ec8d6502000000001976a914d2b0d45dfdba50fbd227f968c79a29ece05144fb88ac0100000000000000","sigHash":1,"segwit":false,"additionals":[],"options":{"version":4,"outputsPrefix":"040400","outputScriptChunks":[{"type":"Buffer","data":[1,100,0,0,0,0,0,0,0,25,118,169,20,160,64,123,4,164,230,92,38,158,114,84,186,26,184,74,255,189,173,110,236,136,172,1,0,0,0,0,0,0,0]},{"type":"Buffer","data":[236,141,101,2,0,0,0,0,25,118,169,20,210,176,212,93,253,186,80,251,210,39,249,104,199,154,41,236,224,81,68,251,136,172,1,0,0,0,0,0,0,0]}]}}

// MST transfer
// 0.1234 DNA
const src = {"version":4,"inputs":[{"address":"MT7By3irp1nzTvha3zGe7t8h61HtUSzTAn","previous_output":{"address":"MT7By3irp1nzTvha3zGe7t8h61HtUSzTAn","hash":"b111cf17bbf82edcaf2e62fa363822c2e8620357413184cc96916004f9b9d8ea","script":"dup hash160 [ d2b0d45dfdba50fbd227f968c79a29ece05144fb ] equalverify checksig","index":2},"script":"","sequence":4294967295},{"address":"MT7By3irp1nzTvha3zGe7t8h61HtUSzTAn","previous_output":{"address":"MT7By3irp1nzTvha3zGe7t8h61HtUSzTAn","hash":"bfeafe95b4865b518b4c81a2e6ca6e3fc1bab5ff6f05688796681ffc13cc8e90","script":"dup hash160 [ d2b0d45dfdba50fbd227f968c79a29ece05144fb ] equalverify checksig","index":1},"script":"","sequence":4294967295}],"outputs":[{"address":"MNWVbJuNxq9FQNL1bWXx5sXiFRKjcFuuj9","attachment":{"version":1,"type":2,"symbol":"DNA","quantity":1234,"status":2},"value":0,"script_type":"pubkeyhash"},{"address":"MT7By3irp1nzTvha3zGe7t8h61HtUSzTAn","attachment":{"version":1,"type":2,"symbol":"DNA","quantity":6766,"status":2},"value":0,"script_type":"pubkeyhash"},{"address":"MT7By3irp1nzTvha3zGe7t8h61HtUSzTAn","attachment":{"version":1,"type":0},"value":40210000,"script_type":"pubkeyhash"}],"lock_time":0}
const des = {"ledger_inputs":[[{"version":{"type":"Buffer","data":[4,0,0,0]},"inputs":[{"prevout":{"type":"Buffer","data":[234,216,185,249,4,96,145,150,204,132,49,65,87,3,98,232,194,34,56,54,250,98,46,175,220,46,248,187,23,207,17,177,2,0,0,0]},"vout":2,"script":{"type":"Buffer","data":[118,169,20,210,176,212,93,253,186,80,251,210,39,249,104,199,154,41,236,224,81,68,251,136,172]},"sequence":{"type":"Buffer","data":[255,255,255,255]}},{"prevout":{"type":"Buffer","data":[144,142,204,19,252,31,104,150,135,104,5,111,255,181,186,193,63,110,202,230,162,129,76,139,81,91,134,180,149,254,234,191,1,0,0,0]},"vout":1,"script":{"type":"Buffer","data":[118,169,20,210,176,212,93,253,186,80,251,210,39,249,104,199,154,41,236,224,81,68,251,136,172]},"sequence":{"type":"Buffer","data":[255,255,255,255]}}],"outputs":[{"amount":{"type":"Buffer","data":[0,0,0,0,0,0,0,0]},"script":{"type":"Buffer","data":[118,169,20,160,64,123,4,164,230,92,38,158,114,84,186,26,184,74,255,189,173,110,236,136,172]},"postfix":"01000000020000000200000003444e41d204000000000000"},{"amount":{"type":"Buffer","data":[0,0,0,0,0,0,0,0]},"script":{"type":"Buffer","data":[118,169,20,210,176,212,93,253,186,80,251,210,39,249,104,199,154,41,236,224,81,68,251,136,172]},"postfix":"01000000020000000200000003444e416e1a000000000000"},{"amount":{"type":"Buffer","data":[80,142,101,2,0,0,0,0]},"script":{"type":"Buffer","data":[118,169,20,210,176,212,93,253,186,80,251,210,39,249,104,199,154,41,236,224,81,68,251,136,172]},"postfix":"0100000000000000"}],"locktime":{"type":"Buffer","data":[0,0,0,0]},"timestamp":{"type":"Buffer","data":[]},"nVersionGroupId":{"type":"Buffer","data":[]},"nExpiryHeight":{"type":"Buffer","data":[]},"extraData":{"type":"Buffer","data":[]}},0,null,4294967295]],"associatedKeysets":["44'/2302'/1'/0/0","44'/2302'/1'/0/0"],"changePath":"44'/2302'/1'/0/0","outputsScript":"0200000000000000001976a914a0407b04a4e65c269e7254ba1ab84affbdad6eec88ac01000000020000000200000003444e41d20400000000000000000000000000001976a914d2b0d45dfdba50fbd227f968c79a29ece05144fb88ac01000000020000000200000003444e416e1a000000000000508e6502000000001976a914d2b0d45dfdba50fbd227f968c79a29ece05144fb88ac0100000000000000","sigHash":1,"segwit":false,"additionals":[],"options":{"version":4,"outputsPrefix":"040400","outputScriptChunks":[{"type":"Buffer","data":[2,0,0,0,0,0,0,0,0,25,118,169,20,160,64,123,4,164,230,92,38,158,114,84,186,26,184,74,255,189,173,110,236,136,172,1,0,0,0,2,0,0,0,2,0,0,0,3,68,78,65,210,4,0,0,0,0,0,0]},{"type":"Buffer","data":[0,0,0,0,0,0,0,0,25,118,169,20,210,176,212,93,253,186,80,251,210,39,249,104,199,154,41,236,224,81,68,251,136,172,1,0,0,0,2,0,0,0,2,0,0,0,3,68,78,65,110,26,0,0,0,0,0,0]},{"type":"Buffer","data":[80,142,101,2,0,0,0,0,25,118,169,20,210,176,212,93,253,186,80,251,210,39,249,104,199,154,41,236,224,81,68,251,136,172,1,0,0,0,0,0,0,0]}]}}
// 0.1 TST
const src = {"version":4,"inputs":[{"address":"MT7By3irp1nzTvha3zGe7t8h61HtUSzTAn","previous_output":{"address":"MT7By3irp1nzTvha3zGe7t8h61HtUSzTAn","hash":"b111cf17bbf82edcaf2e62fa363822c2e8620357413184cc96916004f9b9d8ea","script":"dup hash160 [ d2b0d45dfdba50fbd227f968c79a29ece05144fb ] equalverify checksig","index":1},"script":"","sequence":4294967295},{"address":"MT7By3irp1nzTvha3zGe7t8h61HtUSzTAn","previous_output":{"address":"MT7By3irp1nzTvha3zGe7t8h61HtUSzTAn","hash":"b111cf17bbf82edcaf2e62fa363822c2e8620357413184cc96916004f9b9d8ea","script":"dup hash160 [ d2b0d45dfdba50fbd227f968c79a29ece05144fb ] equalverify checksig","index":2},"script":"","sequence":4294967295}],"outputs":[{"address":"MNWVbJuNxq9FQNL1bWXx5sXiFRKjcFuuj9","attachment":{"version":1,"type":2,"symbol":"TST","quantity":1000,"status":2},"value":0,"script_type":"pubkeyhash"},{"address":"MT7By3irp1nzTvha3zGe7t8h61HtUSzTAn","attachment":{"version":1,"type":2,"symbol":"TST","quantity":980,"status":2},"value":0,"script_type":"pubkeyhash"},{"address":"MT7By3irp1nzTvha3zGe7t8h61HtUSzTAn","attachment":{"version":1,"type":0},"value":40210000,"script_type":"pubkeyhash"}],"lock_time":0}
const des = {"ledger_inputs":[[{"version":{"type":"Buffer","data":[4,0,0,0]},"inputs":[{"prevout":{"type":"Buffer","data":[234,216,185,249,4,96,145,150,204,132,49,65,87,3,98,232,194,34,56,54,250,98,46,175,220,46,248,187,23,207,17,177,1,0,0,0]},"vout":1,"script":{"type":"Buffer","data":[118,169,20,210,176,212,93,253,186,80,251,210,39,249,104,199,154,41,236,224,81,68,251,136,172]},"sequence":{"type":"Buffer","data":[255,255,255,255]}},{"prevout":{"type":"Buffer","data":[234,216,185,249,4,96,145,150,204,132,49,65,87,3,98,232,194,34,56,54,250,98,46,175,220,46,248,187,23,207,17,177,2,0,0,0]},"vout":2,"script":{"type":"Buffer","data":[118,169,20,210,176,212,93,253,186,80,251,210,39,249,104,199,154,41,236,224,81,68,251,136,172]},"sequence":{"type":"Buffer","data":[255,255,255,255]}}],"outputs":[{"amount":{"type":"Buffer","data":[0,0,0,0,0,0,0,0]},"script":{"type":"Buffer","data":[118,169,20,160,64,123,4,164,230,92,38,158,114,84,186,26,184,74,255,189,173,110,236,136,172]},"postfix":"01000000020000000200000003545354e803000000000000"},{"amount":{"type":"Buffer","data":[0,0,0,0,0,0,0,0]},"script":{"type":"Buffer","data":[118,169,20,210,176,212,93,253,186,80,251,210,39,249,104,199,154,41,236,224,81,68,251,136,172]},"postfix":"01000000020000000200000003545354d403000000000000"},{"amount":{"type":"Buffer","data":[80,142,101,2,0,0,0,0]},"script":{"type":"Buffer","data":[118,169,20,210,176,212,93,253,186,80,251,210,39,249,104,199,154,41,236,224,81,68,251,136,172]},"postfix":"0100000000000000"}],"locktime":{"type":"Buffer","data":[0,0,0,0]},"timestamp":{"type":"Buffer","data":[]},"nVersionGroupId":{"type":"Buffer","data":[]},"nExpiryHeight":{"type":"Buffer","data":[]},"extraData":{"type":"Buffer","data":[]}},0,null,4294967295]],"associatedKeysets":["44'/2302'/1'/0/0","44'/2302'/1'/0/0"],"changePath":"44'/2302'/1'/0/0","outputsScript":"0200000000000000001976a914a0407b04a4e65c269e7254ba1ab84affbdad6eec88ac01000000020000000200000003545354e80300000000000000000000000000001976a914d2b0d45dfdba50fbd227f968c79a29ece05144fb88ac01000000020000000200000003545354d403000000000000508e6502000000001976a914d2b0d45dfdba50fbd227f968c79a29ece05144fb88ac0100000000000000","sigHash":1,"segwit":false,"additionals":[],"options":{"version":4,"outputsPrefix":"040400","outputScriptChunks":[{"type":"Buffer","data":[2,0,0,0,0,0,0,0,0,25,118,169,20,160,64,123,4,164,230,92,38,158,114,84,186,26,184,74,255,189,173,110,236,136,172,1,0,0,0,2,0,0,0,2,0,0,0,3,84,83,84,232,3,0,0,0,0,0,0]},{"type":"Buffer","data":[0,0,0,0,0,0,0,0,25,118,169,20,210,176,212,93,253,186,80,251,210,39,249,104,199,154,41,236,224,81,68,251,136,172,1,0,0,0,2,0,0,0,2,0,0,0,3,84,83,84,212,3,0,0,0,0,0,0]},{"type":"Buffer","data":[80,142,101,2,0,0,0,0,25,118,169,20,210,176,212,93,253,186,80,251,210,39,249,104,199,154,41,236,224,81,68,251,136,172,1,0,0,0,0,0,0,0]}]}}

// MIT transfer
const src = {"version":4,"inputs":[{"address":"MVEYP9HcWcxHUJKuwkoK9QRBPsagDafuWc","previous_output":{"address":"MVEYP9HcWcxHUJKuwkoK9QRBPsagDafuWc","hash":"b004bcdf99933e31c4f97b198838860a8d427d9af38473aea7bef200f8cb8c21","script":"dup hash160 [ ea0508e9bb1739406ec7ad516fb3345fbf3d80d0 ] equalverify checksig","index":0},"script":"","sequence":4294967295},{"address":"MVEYP9HcWcxHUJKuwkoK9QRBPsagDafuWc","previous_output":{"address":"MVEYP9HcWcxHUJKuwkoK9QRBPsagDafuWc","hash":"16a19dab46e22623ab1d5bb12d2489dcc23f339e6f751ecda70a171623ee42bf","script":"dup hash160 [ ea0508e9bb1739406ec7ad516fb3345fbf3d80d0 ] equalverify checksig","index":0},"script":"","sequence":4294967295}],"outputs":[{"address":"MW2VhddMQtjKBbj11iv59PiJSS4kJeSBEL","attachment":{"version":207,"type":6,"symbol":"mayday","address":"MW2VhddMQtjKBbj11iv59PiJSS4kJeSBEL","status":2,"to_did":"ehsueh","from_did":"AARONCHUNG"},"value":0,"script_type":"pubkeyhash"},{"address":"MVEYP9HcWcxHUJKuwkoK9QRBPsagDafuWc","attachment":{"version":1,"type":0},"value":22062757,"script_type":"pubkeyhash"}],"lock_time":0}
const des = {"ledger_inputs":[[{"version":{"type":"Buffer","data":[4,0,0,0]},"inputs":[{"prevout":{"type":"Buffer","data":[33,140,203,248,0,242,190,167,174,115,132,243,154,125,66,141,10,134,56,136,25,123,249,196,49,62,147,153,223,188,4,176,0,0,0,0]},"vout":0,"script":{"type":"Buffer","data":[118,169,20,234,5,8,233,187,23,57,64,110,199,173,81,111,179,52,95,191,61,128,208,136,172]},"sequence":{"type":"Buffer","data":[255,255,255,255]}},{"prevout":{"type":"Buffer","data":[191,66,238,35,22,23,10,167,205,30,117,111,158,51,63,194,220,137,36,45,177,91,29,171,35,38,226,70,171,157,161,22,0,0,0,0]},"vout":0,"script":{"type":"Buffer","data":[118,169,20,234,5,8,233,187,23,57,64,110,199,173,81,111,179,52,95,191,61,128,208,136,172]},"sequence":{"type":"Buffer","data":[255,255,255,255]}}],"outputs":[{"amount":{"type":"Buffer","data":[0,0,0,0,0,0,0,0]},"script":{"type":"Buffer","data":[118,169,20,242,181,238,78,41,234,183,136,88,151,67,153,11,10,225,22,17,224,115,117,136,172]},"postfix":"cf00000006000000066568737565680a4141524f4e4348554e4702066d6179646179224d5732566864644d51746a4b42626a31316976353950694a5353346b4a655342454c"},{"amount":{"type":"Buffer","data":[165,166,80,1,0,0,0,0]},"script":{"type":"Buffer","data":[118,169,20,234,5,8,233,187,23,57,64,110,199,173,81,111,179,52,95,191,61,128,208,136,172]},"postfix":"0100000000000000"}],"locktime":{"type":"Buffer","data":[0,0,0,0]},"timestamp":{"type":"Buffer","data":[]},"nVersionGroupId":{"type":"Buffer","data":[]},"nExpiryHeight":{"type":"Buffer","data":[]},"extraData":{"type":"Buffer","data":[]}},0,null,4294967295]],"associatedKeysets":["44'/2302'/1'/0/0","44'/2302'/1'/0/0"],"changePath":"44'/2302'/1'/0/0","outputsScript":"0100000000000000001976a914f2b5ee4e29eab788589743990b0ae11611e0737588accf00000006000000066568737565680a4141524f4e4348554e4702066d6179646179224d5732566864644d51746a4b42626a31316976353950694a5353346b4a655342454ca5a65001000000001976a914ea0508e9bb1739406ec7ad516fb3345fbf3d80d088ac0100000000000000","sigHash":1,"segwit":false,"additionals":[],"options":{"version":4,"outputsPrefix":"040400","outputScriptChunks":[{"type":"Buffer","data":[1,0,0,0,0,0,0,0,0,25,118,169,20,242,181,238,78,41,234,183,136,88,151,67,153,11,10,225,22,17,224,115,117,136,172,207,0,0,0,6,0,0,0,6,101,104,115,117,101,104,10,65,65,82,79,78,67,72,85,78,71,2,6,109,97,121,100,97,121,34,77,87,50,86,104,100,100,77,81,116,106,75,66,98,106,49,49,105,118,53,57,80,105,74,83,83,52,107,74,101,83,66,69,76]},{"type":"Buffer","data":[165,166,80,1,0,0,0,0,25,118,169,20,234,5,8,233,187,23,57,64,110,199,173,81,111,179,52,95,191,61,128,208,136,172,1,0,0,0,0,0,0,0]}]}}

// Avatar creation
const src = {"version":4,"inputs":[{"address":"MRw8nNC2mKuqsn9WVztH3uCcnDkid9h4zV","previous_output":{"address":"MRw8nNC2mKuqsn9WVztH3uCcnDkid9h4zV","hash":"3b61907a1a6efcba54a7ce0933abe1d0c9c4fea693bd31c00e78da449e652946","script":"dup hash160 [ c5d1e2dabf52155f8e9184a5c74065a334b05b72 ] equalverify checksig","index":0},"script":"","sequence":4294967295},{"address":"MRw8nNC2mKuqsn9WVztH3uCcnDkid9h4zV","previous_output":{"address":"MRw8nNC2mKuqsn9WVztH3uCcnDkid9h4zV","hash":"ad04e3fe4978e9daa90855cbfb74967dbbc83cacd585160d90abf55ce33c5a01","script":"dup hash160 [ c5d1e2dabf52155f8e9184a5c74065a334b05b72 ] equalverify checksig","index":1},"script":"","sequence":4294967295}],"outputs":[{"address":"MRw8nNC2mKuqsn9WVztH3uCcnDkid9h4zV","attachment":{"version":1,"type":4,"symbol":"SCAR","address":"MRw8nNC2mKuqsn9WVztH3uCcnDkid9h4zV","status":1},"value":0,"script_type":"pubkeyhash"},{"address":"MRw8nNC2mKuqsn9WVztH3uCcnDkid9h4zV","attachment":{"version":1,"type":0},"value":99966168271,"script_type":"pubkeyhash"},{"address":"MAwLwVGwJyFsTBfNj2j5nCUrQXGVRvHzPh","attachment":{"version":207,"type":0,"to_did":"developer-community","from_did":""},"value":80000000,"script_type":"pubkeyhash"}],"lock_time":0}
const des = {"ledger_inputs":[[{"version":{"type":"Buffer","data":[4,0,0,0]},"inputs":[{"prevout":{"type":"Buffer","data":[70,41,101,158,68,218,120,14,192,49,189,147,166,254,196,201,208,225,171,51,9,206,167,84,186,252,110,26,122,144,97,59,0,0,0,0]},"vout":0,"script":{"type":"Buffer","data":[118,169,20,197,209,226,218,191,82,21,95,142,145,132,165,199,64,101,163,52,176,91,114,136,172]},"sequence":{"type":"Buffer","data":[255,255,255,255]}},{"prevout":{"type":"Buffer","data":[1,90,60,227,92,245,171,144,13,22,133,213,172,60,200,187,125,150,116,251,203,85,8,169,218,233,120,73,254,227,4,173,1,0,0,0]},"vout":1,"script":{"type":"Buffer","data":[118,169,20,197,209,226,218,191,82,21,95,142,145,132,165,199,64,101,163,52,176,91,114,136,172]},"sequence":{"type":"Buffer","data":[255,255,255,255]}}],"outputs":[{"amount":{"type":"Buffer","data":[0,0,0,0,0,0,0,0]},"script":{"type":"Buffer","data":[118,169,20,197,209,226,218,191,82,21,95,142,145,132,165,199,64,101,163,52,176,91,114,136,172]},"postfix":"0100000004000000010000000453434152224d5277386e4e43326d4b7571736e3957567a7448337543636e446b69643968347a56"},{"amount":{"type":"Buffer","data":[207,172,114,70,23,0,0,0]},"script":{"type":"Buffer","data":[118,169,20,197,209,226,218,191,82,21,95,142,145,132,165,199,64,101,163,52,176,91,114,136,172]},"postfix":"0100000000000000"},{"amount":{"type":"Buffer","data":[0,180,196,4,0,0,0,0]},"script":{"type":"Buffer","data":[118,169,20,33,82,37,212,209,153,196,11,45,145,51,31,49,230,118,86,207,36,186,114,136,172]},"postfix":"cf0000000000000013646576656c6f7065722d636f6d6d756e69747900"}],"locktime":{"type":"Buffer","data":[0,0,0,0]},"timestamp":{"type":"Buffer","data":[]},"nVersionGroupId":{"type":"Buffer","data":[]},"nExpiryHeight":{"type":"Buffer","data":[]},"extraData":{"type":"Buffer","data":[]}},0,null,4294967295]],"associatedKeysets":["44'/2302'/1'/0/0","44'/2302'/1'/0/0"],"changePath":"44'/2302'/1'/0/0","outputsScript":"0200000000000000001976a914c5d1e2dabf52155f8e9184a5c74065a334b05b7288ac0100000004000000010000000453434152224d5277386e4e43326d4b7571736e3957567a7448337543636e446b69643968347a56cfac7246170000001976a914c5d1e2dabf52155f8e9184a5c74065a334b05b7288ac010000000000000000b4c404000000001976a914215225d4d199c40b2d91331f31e67656cf24ba7288accf0000000000000013646576656c6f7065722d636f6d6d756e69747900","sigHash":1,"segwit":false,"additionals":[],"options":{"version":4,"outputsPrefix":"040400","outputScriptChunks":[{"type":"Buffer","data":[2,0,0,0,0,0,0,0,0,25,118,169,20,197,209,226,218,191,82,21,95,142,145,132,165,199,64,101,163,52,176,91,114,136,172,1,0,0,0,4,0,0,0,1,0,0,0,4,83,67,65,82,34,77,82,119,56,110,78,67,50,109,75,117,113,115,110,57,87,86,122,116,72,51,117,67,99,110,68,107,105,100,57,104,52,122,86]},{"type":"Buffer","data":[207,172,114,70,23,0,0,0,25,118,169,20,197,209,226,218,191,82,21,95,142,145,132,165,199,64,101,163,52,176,91,114,136,172,1,0,0,0,0,0,0,0]},{"type":"Buffer","data":[0,180,196,4,0,0,0,0,25,118,169,20,33,82,37,212,209,153,196,11,45,145,51,31,49,230,118,86,207,36,186,114,136,172,207,0,0,0,0,0,0,0,19,100,101,118,101,108,111,112,101,114,45,99,111,109,109,117,110,105,116,121,0]}]}}

// MST creation
const src = {"version":4,"inputs":[{"address":"MW2VhddMQtjKBbj11iv59PiJSS4kJeSBEL","previous_output":{"address":"MW2VhddMQtjKBbj11iv59PiJSS4kJeSBEL","hash":"3cbc896267e81178526e97a0caf07df481cac8866fad50560add51a78faf7b88","script":"dup hash160 [ f2b5ee4e29eab788589743990b0ae11611e07375 ] equalverify checksig","index":3},"script":"","sequence":4294967295}],"outputs":[{"address":"MW2VhddMQtjKBbj11iv59PiJSS4kJeSBEL","attachment":{"version":207,"type":2,"status":1,"symbol":"RABBIT","secondaryissue_threshold":0,"max_supply":6992,"precision":0,"issuer":"ehsueh","address":"MW2VhddMQtjKBbj11iv59PiJSS4kJeSBEL","description":"rabBitcoin","to_did":"ehsueh","from_did":"ehsueh"},"value":0,"script_type":"pubkeyhash"},{"address":"MW2VhddMQtjKBbj11iv59PiJSS4kJeSBEL","attachment":{"version":207,"to_did":"ehsueh","from_did":"ehsueh","type":5,"owner":"ehsueh","symbol":"RABBIT","cert":2,"status":3,"address":"MW2VhddMQtjKBbj11iv59PiJSS4kJeSBEL"},"value":0,"script_type":"pubkeyhash"},{"address":"MW2VhddMQtjKBbj11iv59PiJSS4kJeSBEL","attachment":{"version":1,"type":0},"value":222860000,"script_type":"pubkeyhash"}],"lock_time":0}
const des = {"ledger_inputs":[[{"version":{"type":"Buffer","data":[4,0,0,0]},"inputs":[{"prevout":{"type":"Buffer","data":[136,123,175,143,167,81,221,10,86,80,173,111,134,200,202,129,244,125,240,202,160,151,110,82,120,17,232,103,98,137,188,60,3,0,0,0]},"vout":3,"script":{"type":"Buffer","data":[118,169,20,242,181,238,78,41,234,183,136,88,151,67,153,11,10,225,22,17,224,115,117,136,172]},"sequence":{"type":"Buffer","data":[255,255,255,255]}}],"outputs":[{"amount":{"type":"Buffer","data":[0,0,0,0,0,0,0,0]},"script":{"type":"Buffer","data":[118,169,20,242,181,238,78,41,234,183,136,88,151,67,153,11,10,225,22,17,224,115,117,136,172]},"postfix":"cf0000000200000006656873756568066568737565680100000006524142424954501b0000000000000000000006656873756568224d5732566864644d51746a4b42626a31316976353950694a5353346b4a655342454c0a726162426974636f696e"},{"amount":{"type":"Buffer","data":[0,0,0,0,0,0,0,0]},"script":{"type":"Buffer","data":[118,169,20,242,181,238,78,41,234,183,136,88,151,67,153,11,10,225,22,17,224,115,117,136,172]},"postfix":"cf0000000500000006656873756568066568737565680652414242495406656873756568224d5732566864644d51746a4b42626a31316976353950694a5353346b4a655342454c0200000003"},{"amount":{"type":"Buffer","data":[224,146,72,13,0,0,0,0]},"script":{"type":"Buffer","data":[118,169,20,242,181,238,78,41,234,183,136,88,151,67,153,11,10,225,22,17,224,115,117,136,172]},"postfix":"0100000000000000"}],"locktime":{"type":"Buffer","data":[0,0,0,0]},"timestamp":{"type":"Buffer","data":[]},"nVersionGroupId":{"type":"Buffer","data":[]},"nExpiryHeight":{"type":"Buffer","data":[]},"extraData":{"type":"Buffer","data":[]}},0,null,4294967295]],"associatedKeysets":["44'/2302'/1'/0/0","44'/2302'/1'/0/0"],"changePath":"44'/2302'/1'/0/0","outputsScript":"0200000000000000001976a914f2b5ee4e29eab788589743990b0ae11611e0737588accf0000000200000006656873756568066568737565680100000006524142424954501b0000000000000000000006656873756568224d5732566864644d51746a4b42626a31316976353950694a5353346b4a655342454c0a726162426974636f696e00000000000000001976a914f2b5ee4e29eab788589743990b0ae11611e0737588accf0000000500000006656873756568066568737565680652414242495406656873756568224d5732566864644d51746a4b42626a31316976353950694a5353346b4a655342454c0200000003e092480d000000001976a914f2b5ee4e29eab788589743990b0ae11611e0737588ac0100000000000000","sigHash":1,"segwit":false,"additionals":[],"options":{"version":4,"outputsPrefix":"040400","outputScriptChunks":[{"type":"Buffer","data":[2,0,0,0,0,0,0,0,0,25,118,169,20,242,181,238,78,41,234,183,136,88,151,67,153,11,10,225,22,17,224,115,117,136,172,207,0,0,0,2,0,0,0,6,101,104,115,117,101,104,6,101,104,115,117,101,104,1,0,0,0,6,82,65,66,66,73,84,80,27,0,0,0,0,0,0,0,0,0,0,6,101,104,115,117,101,104,34,77,87,50,86,104,100,100,77,81,116,106,75,66,98,106,49,49,105,118,53,57,80,105,74,83,83,52,107,74,101,83,66,69,76,10,114,97,98,66,105,116,99,111,105,110]},{"type":"Buffer","data":[0,0,0,0,0,0,0,0,25,118,169,20,242,181,238,78,41,234,183,136,88,151,67,153,11,10,225,22,17,224,115,117,136,172,207,0,0,0,5,0,0,0,6,101,104,115,117,101,104,6,101,104,115,117,101,104,6,82,65,66,66,73,84,6,101,104,115,117,101,104,34,77,87,50,86,104,100,100,77,81,116,106,75,66,98,106,49,49,105,118,53,57,80,105,74,83,83,52,107,74,101,83,66,69,76,2,0,0,0,3]},{"type":"Buffer","data":[224,146,72,13,0,0,0,0,25,118,169,20,242,181,238,78,41,234,183,136,88,151,67,153,11,10,225,22,17,224,115,117,136,172,1,0,0,0,0,0,0,0]}]}}

// MIT creation
const src = {"version":4,"inputs":[{"address":"MW2VhddMQtjKBbj11iv59PiJSS4kJeSBEL","previous_output":{"address":"MW2VhddMQtjKBbj11iv59PiJSS4kJeSBEL","hash":"3cbc896267e81178526e97a0caf07df481cac8866fad50560add51a78faf7b88","script":"dup hash160 [ f2b5ee4e29eab788589743990b0ae11611e07375 ] equalverify checksig","index":3},"script":"","sequence":4294967295}],"outputs":[{"address":"MW2VhddMQtjKBbj11iv59PiJSS4kJeSBEL","attachment":{"version":207,"type":6,"symbol":"Ephy","address":"MW2VhddMQtjKBbj11iv59PiJSS4kJeSBEL","content":"Unicorn","status":1,"to_did":"ehsueh","from_did":"ehsueh"},"value":0,"script_type":"pubkeyhash"},{"address":"MW2VhddMQtjKBbj11iv59PiJSS4kJeSBEL","attachment":{"version":1,"type":0},"value":1222850000,"script_type":"pubkeyhash"}],"lock_time":0}
const des = {"ledger_inputs":[[{"version":{"type":"Buffer","data":[4,0,0,0]},"inputs":[{"prevout":{"type":"Buffer","data":[136,123,175,143,167,81,221,10,86,80,173,111,134,200,202,129,244,125,240,202,160,151,110,82,120,17,232,103,98,137,188,60,3,0,0,0]},"vout":3,"script":{"type":"Buffer","data":[118,169,20,242,181,238,78,41,234,183,136,88,151,67,153,11,10,225,22,17,224,115,117,136,172]},"sequence":{"type":"Buffer","data":[255,255,255,255]}}],"outputs":[{"amount":{"type":"Buffer","data":[0,0,0,0,0,0,0,0]},"script":{"type":"Buffer","data":[118,169,20,242,181,238,78,41,234,183,136,88,151,67,153,11,10,225,22,17,224,115,117,136,172]},"postfix":"cf000000060000000665687375656806656873756568010445706879224d5732566864644d51746a4b42626a31316976353950694a5353346b4a655342454c07556e69636f726e"},{"amount":{"type":"Buffer","data":[208,53,227,72,0,0,0,0]},"script":{"type":"Buffer","data":[118,169,20,242,181,238,78,41,234,183,136,88,151,67,153,11,10,225,22,17,224,115,117,136,172]},"postfix":"0100000000000000"}],"locktime":{"type":"Buffer","data":[0,0,0,0]},"timestamp":{"type":"Buffer","data":[]},"nVersionGroupId":{"type":"Buffer","data":[]},"nExpiryHeight":{"type":"Buffer","data":[]},"extraData":{"type":"Buffer","data":[]}},0,null,4294967295]],"associatedKeysets":["44'/2302'/1'/0/0","44'/2302'/1'/0/0"],"changePath":"44'/2302'/1'/0/0","outputsScript":"0100000000000000001976a914f2b5ee4e29eab788589743990b0ae11611e0737588accf000000060000000665687375656806656873756568010445706879224d5732566864644d51746a4b42626a31316976353950694a5353346b4a655342454c07556e69636f726ed035e348000000001976a914f2b5ee4e29eab788589743990b0ae11611e0737588ac0100000000000000","sigHash":1,"segwit":false,"additionals":[],"options":{"version":4,"outputsPrefix":"040400","outputScriptChunks":[{"type":"Buffer","data":[1,0,0,0,0,0,0,0,0,25,118,169,20,242,181,238,78,41,234,183,136,88,151,67,153,11,10,225,22,17,224,115,117,136,172,207,0,0,0,6,0,0,0,6,101,104,115,117,101,104,6,101,104,115,117,101,104,1,4,69,112,104,121,34,77,87,50,86,104,100,100,77,81,116,106,75,66,98,106,49,49,105,118,53,57,80,105,74,83,83,52,107,74,101,83,66,69,76,7,85,110,105,99,111,114,110]},{"type":"Buffer","data":[208,53,227,72,0,0,0,0,25,118,169,20,242,181,238,78,41,234,183,136,88,151,67,153,11,10,225,22,17,224,115,117,136,172,1,0,0,0,0,0,0,0]}]}}
