// ETP transfer

// MST transfer

// 0.1234 DNA
const src = {"version":4,"inputs":[{"address":"MT7By3irp1nzTvha3zGe7t8h61HtUSzTAn","previous_output":{"address":"MT7By3irp1nzTvha3zGe7t8h61HtUSzTAn","hash":"b111cf17bbf82edcaf2e62fa363822c2e8620357413184cc96916004f9b9d8ea","script":"dup hash160 [ d2b0d45dfdba50fbd227f968c79a29ece05144fb ] equalverify checksig","index":2},"script":"","sequence":4294967295},{"address":"MT7By3irp1nzTvha3zGe7t8h61HtUSzTAn","previous_output":{"address":"MT7By3irp1nzTvha3zGe7t8h61HtUSzTAn","hash":"bfeafe95b4865b518b4c81a2e6ca6e3fc1bab5ff6f05688796681ffc13cc8e90","script":"dup hash160 [ d2b0d45dfdba50fbd227f968c79a29ece05144fb ] equalverify checksig","index":1},"script":"","sequence":4294967295}],"outputs":[{"address":"MNWVbJuNxq9FQNL1bWXx5sXiFRKjcFuuj9","attachment":{"version":1,"type":2,"symbol":"DNA","quantity":1234,"status":2},"value":0,"script_type":"pubkeyhash"},{"address":"MT7By3irp1nzTvha3zGe7t8h61HtUSzTAn","attachment":{"version":1,"type":2,"symbol":"DNA","quantity":6766,"status":2},"value":0,"script_type":"pubkeyhash"},{"address":"MT7By3irp1nzTvha3zGe7t8h61HtUSzTAn","attachment":{"version":1,"type":0},"value":40210000,"script_type":"pubkeyhash"}],"lock_time":0}
const des = {"ledger_inputs":[[{"version":{"type":"Buffer","data":[4,0,0,0]},"inputs":[{"prevout":{"type":"Buffer","data":[234,216,185,249,4,96,145,150,204,132,49,65,87,3,98,232,194,34,56,54,250,98,46,175,220,46,248,187,23,207,17,177,2,0,0,0]},"vout":2,"script":{"type":"Buffer","data":[118,169,20,210,176,212,93,253,186,80,251,210,39,249,104,199,154,41,236,224,81,68,251,136,172]},"sequence":{"type":"Buffer","data":[255,255,255,255]}},{"prevout":{"type":"Buffer","data":[144,142,204,19,252,31,104,150,135,104,5,111,255,181,186,193,63,110,202,230,162,129,76,139,81,91,134,180,149,254,234,191,1,0,0,0]},"vout":1,"script":{"type":"Buffer","data":[118,169,20,210,176,212,93,253,186,80,251,210,39,249,104,199,154,41,236,224,81,68,251,136,172]},"sequence":{"type":"Buffer","data":[255,255,255,255]}}],"outputs":[{"amount":{"type":"Buffer","data":[0,0,0,0,0,0,0,0]},"script":{"type":"Buffer","data":[118,169,20,160,64,123,4,164,230,92,38,158,114,84,186,26,184,74,255,189,173,110,236,136,172]},"postfix":"01000000020000000200000003444e41d204000000000000"},{"amount":{"type":"Buffer","data":[0,0,0,0,0,0,0,0]},"script":{"type":"Buffer","data":[118,169,20,210,176,212,93,253,186,80,251,210,39,249,104,199,154,41,236,224,81,68,251,136,172]},"postfix":"01000000020000000200000003444e416e1a000000000000"},{"amount":{"type":"Buffer","data":[80,142,101,2,0,0,0,0]},"script":{"type":"Buffer","data":[118,169,20,210,176,212,93,253,186,80,251,210,39,249,104,199,154,41,236,224,81,68,251,136,172]},"postfix":"0100000000000000"}],"locktime":{"type":"Buffer","data":[0,0,0,0]},"timestamp":{"type":"Buffer","data":[]},"nVersionGroupId":{"type":"Buffer","data":[]},"nExpiryHeight":{"type":"Buffer","data":[]},"extraData":{"type":"Buffer","data":[]}},0,null,4294967295]],"associatedKeysets":["44'/2302'/1'/0/0","44'/2302'/1'/0/0"],"changePath":"44'/2302'/1'/0/0","outputsScript":"0200000000000000001976a914a0407b04a4e65c269e7254ba1ab84affbdad6eec88ac01000000020000000200000003444e41d20400000000000000000000000000001976a914d2b0d45dfdba50fbd227f968c79a29ece05144fb88ac01000000020000000200000003444e416e1a000000000000508e6502000000001976a914d2b0d45dfdba50fbd227f968c79a29ece05144fb88ac0100000000000000","sigHash":1,"segwit":false,"additionals":[],"options":{"version":4,"outputsPrefix":"040400","outputScriptChunks":[{"type":"Buffer","data":[2,0,0,0,0,0,0,0,0,25,118,169,20,160,64,123,4,164,230,92,38,158,114,84,186,26,184,74,255,189,173,110,236,136,172,1,0,0,0,2,0,0,0,2,0,0,0,3,68,78,65,210,4,0,0,0,0,0,0]},{"type":"Buffer","data":[0,0,0,0,0,0,0,0,25,118,169,20,210,176,212,93,253,186,80,251,210,39,249,104,199,154,41,236,224,81,68,251,136,172,1,0,0,0,2,0,0,0,2,0,0,0,3,68,78,65,110,26,0,0,0,0,0,0]},{"type":"Buffer","data":[80,142,101,2,0,0,0,0,25,118,169,20,210,176,212,93,253,186,80,251,210,39,249,104,199,154,41,236,224,81,68,251,136,172,1,0,0,0,0,0,0,0]}]}}
// 0.1 TST
const src = {"version":4,"inputs":[{"address":"MT7By3irp1nzTvha3zGe7t8h61HtUSzTAn","previous_output":{"address":"MT7By3irp1nzTvha3zGe7t8h61HtUSzTAn","hash":"b111cf17bbf82edcaf2e62fa363822c2e8620357413184cc96916004f9b9d8ea","script":"dup hash160 [ d2b0d45dfdba50fbd227f968c79a29ece05144fb ] equalverify checksig","index":1},"script":"","sequence":4294967295},{"address":"MT7By3irp1nzTvha3zGe7t8h61HtUSzTAn","previous_output":{"address":"MT7By3irp1nzTvha3zGe7t8h61HtUSzTAn","hash":"b111cf17bbf82edcaf2e62fa363822c2e8620357413184cc96916004f9b9d8ea","script":"dup hash160 [ d2b0d45dfdba50fbd227f968c79a29ece05144fb ] equalverify checksig","index":2},"script":"","sequence":4294967295}],"outputs":[{"address":"MNWVbJuNxq9FQNL1bWXx5sXiFRKjcFuuj9","attachment":{"version":1,"type":2,"symbol":"TST","quantity":1000,"status":2},"value":0,"script_type":"pubkeyhash"},{"address":"MT7By3irp1nzTvha3zGe7t8h61HtUSzTAn","attachment":{"version":1,"type":2,"symbol":"TST","quantity":980,"status":2},"value":0,"script_type":"pubkeyhash"},{"address":"MT7By3irp1nzTvha3zGe7t8h61HtUSzTAn","attachment":{"version":1,"type":0},"value":40210000,"script_type":"pubkeyhash"}],"lock_time":0}
const des = {"ledger_inputs":[[{"version":{"type":"Buffer","data":[4,0,0,0]},"inputs":[{"prevout":{"type":"Buffer","data":[234,216,185,249,4,96,145,150,204,132,49,65,87,3,98,232,194,34,56,54,250,98,46,175,220,46,248,187,23,207,17,177,1,0,0,0]},"vout":1,"script":{"type":"Buffer","data":[118,169,20,210,176,212,93,253,186,80,251,210,39,249,104,199,154,41,236,224,81,68,251,136,172]},"sequence":{"type":"Buffer","data":[255,255,255,255]}},{"prevout":{"type":"Buffer","data":[234,216,185,249,4,96,145,150,204,132,49,65,87,3,98,232,194,34,56,54,250,98,46,175,220,46,248,187,23,207,17,177,2,0,0,0]},"vout":2,"script":{"type":"Buffer","data":[118,169,20,210,176,212,93,253,186,80,251,210,39,249,104,199,154,41,236,224,81,68,251,136,172]},"sequence":{"type":"Buffer","data":[255,255,255,255]}}],"outputs":[{"amount":{"type":"Buffer","data":[0,0,0,0,0,0,0,0]},"script":{"type":"Buffer","data":[118,169,20,160,64,123,4,164,230,92,38,158,114,84,186,26,184,74,255,189,173,110,236,136,172]},"postfix":"01000000020000000200000003545354e803000000000000"},{"amount":{"type":"Buffer","data":[0,0,0,0,0,0,0,0]},"script":{"type":"Buffer","data":[118,169,20,210,176,212,93,253,186,80,251,210,39,249,104,199,154,41,236,224,81,68,251,136,172]},"postfix":"01000000020000000200000003545354d403000000000000"},{"amount":{"type":"Buffer","data":[80,142,101,2,0,0,0,0]},"script":{"type":"Buffer","data":[118,169,20,210,176,212,93,253,186,80,251,210,39,249,104,199,154,41,236,224,81,68,251,136,172]},"postfix":"0100000000000000"}],"locktime":{"type":"Buffer","data":[0,0,0,0]},"timestamp":{"type":"Buffer","data":[]},"nVersionGroupId":{"type":"Buffer","data":[]},"nExpiryHeight":{"type":"Buffer","data":[]},"extraData":{"type":"Buffer","data":[]}},0,null,4294967295]],"associatedKeysets":["44'/2302'/1'/0/0","44'/2302'/1'/0/0"],"changePath":"44'/2302'/1'/0/0","outputsScript":"0200000000000000001976a914a0407b04a4e65c269e7254ba1ab84affbdad6eec88ac01000000020000000200000003545354e80300000000000000000000000000001976a914d2b0d45dfdba50fbd227f968c79a29ece05144fb88ac01000000020000000200000003545354d403000000000000508e6502000000001976a914d2b0d45dfdba50fbd227f968c79a29ece05144fb88ac0100000000000000","sigHash":1,"segwit":false,"additionals":[],"options":{"version":4,"outputsPrefix":"040400","outputScriptChunks":[{"type":"Buffer","data":[2,0,0,0,0,0,0,0,0,25,118,169,20,160,64,123,4,164,230,92,38,158,114,84,186,26,184,74,255,189,173,110,236,136,172,1,0,0,0,2,0,0,0,2,0,0,0,3,84,83,84,232,3,0,0,0,0,0,0]},{"type":"Buffer","data":[0,0,0,0,0,0,0,0,25,118,169,20,210,176,212,93,253,186,80,251,210,39,249,104,199,154,41,236,224,81,68,251,136,172,1,0,0,0,2,0,0,0,2,0,0,0,3,84,83,84,212,3,0,0,0,0,0,0]},{"type":"Buffer","data":[80,142,101,2,0,0,0,0,25,118,169,20,210,176,212,93,253,186,80,251,210,39,249,104,199,154,41,236,224,81,68,251,136,172,1,0,0,0,0,0,0,0]}]}}

